:020000040800F2
:1000000000000220C931000815320008153200082E
:1000100015320008153200081532000800000000F3
:100020000000000000000000000000001532000881
:1000300015320008000000001532000815320008D3
:100040001532000815320008153200081532000874
:100050001532000815320008153200081532000864
:100060001532000815320008153200081532000854
:100070001532000815320008153200081532000844
:100080001532000815320008153200082D1A000834
:10009000311A000815320008211A0008153200082C
:1000A0001532000815320008153200081532000814
:1000B0001532000815320008153200081532000804
:1000C00015320008153200081532000815320008F4
:1000D00015320008153200081532000815320008E4
:1000E00015320008153200081532000815320008D4
:1000F00015320008153200081532000815320008C4
:1001000015320008153200081532000815320008B3
:1001100015320008153200081532000815320008A3
:100120001532000815320008153200081532000893
:10013000153200080000000000000000411A00080D
:10014000451A000815320008351A00081532000853
:100150001532000815320008153200081532000863
:100160001532000815320008153200081532000853
:100170001532000815320008153200080000000092
:100180000000000015320008000000000000000020
:1001900015320008000000000000000015320008C1
:1001A0000000000000000000000000001532000800
:1001B0001532000815320008153200081532000803
:1001C0001532000810B5054C237833B9044B13B130
:1001D0000448AFF300800123237010BDB80C002049
:1001E000000000003C06010808B5034B1BB10349A1
:1001F0000348AFF3008008BD00000000BC0C0020E5
:100200003C060108154B002B08BF134B9D46A3F578
:10021000803A00218B460F461348144A121A07F001
:1002200031FB0F4B002B00D098470E4B002B00D01A
:1002300098470020002104000D000D48002802D03E
:100240000C4802F00CF807F013F92000290002F026
:1002500093FA02F001F800BF00000800000002203D
:100260000000000069270008B80C002024190020B5
:100270005F22000800000000036818470B68036055
:1002800070477047034B187808B900F07FB9012810
:10029000FBD07047A80F002010B5094B036003F195
:1002A000200280330446C0F8BC20C0F8C030BC3007
:1002B00006F05EFA204605F039FD204610BD00BF6D
:1002C00038FD0008A0F1BC00E6E7A0F1C000E3E7BC
:1002D00070B5064608460C46154600F03DF9A0B13B
:1002E000204600F04FF9104B1870104B20461E703E
:1002F00000F04AF92B4602460D490E4806F04AFA2C
:100300000320BDE8704000F041B9204600F029F913
:1003100048B1204600F036F907490246054806F084
:1003200039FA0220EDE770BD9C0D00209D0D0020E4
:10033000CCED0008240F002052EE000810B5044652
:1003400001F0BAFA014B22781A7010BDA80F0020F4
:100350002DE9F8432C492D4D2D482E4C2E4FDFF81A
:10036000D880DFF8D89006F015FA00F019F91123BB
:1003700007222A49264823702A7006F00BFA2878AB
:10038000274D284A284901F06DFA2849284607F0E8
:1003900025FE264807F094FE00232B54234807F03F
:1003A0008FFE234B1870234B1A78511C1970C3B25F
:1003B0002946214800F0DAF801253870042000F0C1
:1003C000F5F80646C0B1227839784046FFF7B6FF07
:1003D000002006F0B5F807F0BBFA07F0C1FA3923A0
:1003E00090FBF3F202FB1300184405F09DFF00237D
:1003F00089F800300125E1E7002DDFD0042000F06E
:10040000C5F83546DAE700BFD5EE0008CC0100207C
:10041000240F00209E0D0020400F002019EF00083F
:100420009F0D0020D10200088502000832EF00086D
:10043000A90F0020420F0020D40C0020410F002003
:10044000C36810B504460BB19B689847204610BDA1
:1004500038B50546064B45F8283B044604F04AFFEC
:100460002846FFF7EDFF204604F0DAFE204638BDAF
:100470008CFC000810B50446FFF7EAFF204602F0A6
:1004800054F8204610BD000010B5034B036004462D
:10049000FFF7DEFF204610BD00FD000810B5044642
:1004A000FFF7FAFE204602F040F8204610BDA0F10A
:1004B000BC00F3E7A0F1C000F0E710B50446FFF779
:1004C000E3FF204602F031F8204610BD37B5194C45
:1004D000194D4FF4165300930322002302212046A6
:1004E00004F0BAFF2046154C15492A4601F0B2FE29
:1004F000204604F06DFE2046124B40F8283B1022A7
:10050000002107F0BFF9012384F838300E4B236037
:1005100020460E4C0E492A4601F09CFE204604F06F
:10052000AAFE0C492A46204603B0BDE8304001F03F
:1005300091BE00BF680E0020C8010020480F0020B7
:10054000990200088CFC000800FD0008880F0020BC
:1005500089040008355200080078B0FA80F040099C
:1005600070470078431E58425841704710B51C46EA
:100570000023037042702246023007F081F8A01C6D
:10058000C0B210BD4078704702307047034A012363
:1005900003FA00F01368184310607047AC0F002096
:1005A000014B00221A607047AC0F0020012303FAB0
:1005B00000F0024B1B681840704700BFAC0F0020D2
:1005C0000FB407B5064B04AA1B6852F8041BD86881
:1005D000019209F0C3FB03B05DF804EB04B070476F
:1005E000F0020020014B1860704700BFB00F0020E0
:1005F000024B18600248FFF7E3BF00BFB80F0020AE
:10060000ABEF0008024B18600248FFF7D9BF00BFEC
:10061000B40F002038EF000808B500F025FC0128D1
:1006200008D000F021FC01460548FFF7C9FF4FF054
:10063000FF3008BD002000F06BFD0020F9E700BF8F
:100640004EEF00082DE9F041BDF81C50B5F5806F64
:1006500006460C4690461F4606D319482946FFF722
:10066000AFFF0620BDE8F08100F03AFC4FFA88F0B9
:1006700000F042FC384600F045FC069800F04EFCC5
:10068000204600F027FC6EB90B3C012C0ED801204F
:1006900000F01AFC65B9012000F046FC00F068FC8F
:1006A0000020DFE7012E01D10C2CF0D00020EFE775
:1006B000002000F039FC284600F03CFCEEE700BFCB
:1006C000C3EF00087047000084B038B504AC84E87C
:1006D0000F00DDE908540C2C0DD911482146FFF715
:1006E0006FFF0C2000F0F6FB1DB1012D01D10C2C89
:1006F0000ED000200DE0052C05D809482146FFF753
:100700005FFF0620EEE7002DEFD10B3C012CF0D867
:10071000012000F0D9FBBDE8384004B000F028BC4F
:1007200082EF000884B038B504AC84E80F009DF86F
:1007300031309DF8155033206BB300F01FFE40F0B0
:100740004101C9B2332000F00EFE19213B2000F018
:100750000AFE9DF82F309DF832403BB31D21112039
:1007600000F001FE402000F009FE00F033014020BF
:1007700000F0F9FD00210F2000F0F5FD00210D2013
:1007800000F0F1FD012D1DD1D4B10520BDE83840A8
:1007900004B000F069BE00F0F1FD00F0BE0141F0D0
:1007A0000101332000F0DFFD1D21CFE71F211120C3
:1007B00000F0D9FD402000F0E1FD00F03F01D6E758
:1007C0000620E3E7BDE8384004B0704784B0F8B5D0
:1007D00006AC84E80F000898BDF832609DF83450EC
:1007E000BDF842700B9C00F01FFE1D2000F0C6FDFE
:1007F0009DF831309DF8301041EAC3010A9B41EA6F
:1008000083119DF8363041EA430141EA8501C9B2BE
:100810001D2000F0A8FD1E2000F0B0FDC7F301214F
:1008200000F00C0041EA04110143C9B21E2000F09F
:100830009AFDF9B21F2000F096FD310A202000F049
:1008400092FDF1B2212000F08EFD25B19DF835100A
:10085000222000F088FD9DF837306BB14B2000F06E
:100860008DFD60F07F01C9B24B2000F07CFD9DF84A
:100870003810242000F077FD062C4FF031000FD106
:1008800000F07CFD00F0F80141F00501312000F09E
:100890006AFD0C21BDE8F840372004B000F063BDCC
:1008A00000F06CFD00F0F80141F00301312000F090
:1008B0005AFD0A21EEE78021122000F054BD4021AC
:1008C000122000F050BD07B5122000F057FD8DF842
:1008D00007009DF80700C0F3401003B05DF804FB6B
:1008E0002021122000F03FBD08B5192000F046FD80
:1008F000030643BF4042C0F38500404240F38700F7
:1009000008BD10B504461A2000F038FD002CB8BF11
:100910008B3C4FEA2013B4BF2418A0F18B041C4475
:1009200020B210BD38B50546132000F027FD04465F
:100930000146284600F071FD204638BD0FB407B5CA
:10094000064B04AA1B6852F8041BD868019209F0F0
:1009500005FA03B05DF804EB04B07047F002002024
:1009600038B50D46044628B90C48FFF7E7FF4FF0AD
:10097000FF3038BD402905D90948FFF7DFFF6FF088
:100980000100F6E700F076FA0A2005F0CDFC2946D2
:10099000204600F0FBFB0020EBE700BF89F00008D9
:1009A000B5F000082DE9F0410D4614469846BDF813
:1009B0001870079E00F09AFA284600F091FA4FFA54
:1009C00088F000F099FA384600F09CFA304600F0C2
:1009D000A5FA204600F07EFA4DB90B3C012C0AD84E
:1009E000012000F071FABDE8F04100F0A9BA012D34
:1009F00001D10C2CF4D00020F3E70000024B18606A
:100A00000248FFF79BBF00BFBC0F002053F0000857
:100A1000024B18600248FFF791BF00BFC00F0020D3
:100A200071F0000884B038B504AC84E80F00DDE94B
:100A300008549DF91C0000F02DFB0C2C0DD9114819
:100A40002146FFF77BFF0C2000F044FA1DB1012D79
:100A500001D10C2C0ED000200DE0052C05D8094842
:100A60002146FFF76BFF0620EEE7002DEFD10B3C90
:100A7000012CF0D8012000F027FABDE8384004B07E
:100A800000F05EBA82EF000884B008B50DF1080CE2
:100A90008CE80F009DF80D30012B10D19DF8273008
:100AA0009BB1F521112000F05EFC402000F066FCB7
:100AB00000F0330141F04001402000F054FCBDE85B
:100AC0000840032004B000F0CFBCF721112000F053
:100AD0004AFC402000F052FC00F03F01EAE700F041
:100AE000FD0001280CBF80200020704784B070B545
:100AF00004AC84E80F0009209DF9404000F03EFC62
:100B000006465A2000F03AFC05469DF81000FFF713
:100B1000E6FF06F07F063043C0B2030600F0F001A6
:100B20001ED5112C12DD142CA8BF142445F0070586
:100B3000631FEDB21943C9B2092000F014FC294625
:100B4000BDE870405A2004B000F00DBC022C05F046
:100B5000F805B8BF022445F00405023C2143EAE74A
:100B60000E2CA8BF0E2444EAE4740134F6E784B0E6
:100B7000F0B58BB010AC84E80F009DF94C300893B1
:100B800014AD0FCD6C46159EBDF85A700FC495E894
:100B90000F0084E80F0010AB0FCBFFF7A7FF1298F0
:100BA00000F042FC9DF85F306BB14B2000F0E6FB9B
:100BB00060F07F01C9B24B2000F0D5FB9DF86010BA
:100BC000242000F0D0FB1D2000F0D8FB9DF8593008
:100BD0009DF8581041EAC301149B41EA83119DF826
:100BE0005C3041EA83019DF85E3041EA4301C9B2BD
:100BF0001D2000F0B8FB1E2000F0C0FB00F00F012C
:100C000041EA0611C9B21E2000F0ADFB390A2020CE
:100C100000F0A9FB2120F9B200F0A5FB062E4FF051
:100C2000310010D100F0AAFB00F0F80141F00501FD
:100C3000312000F098FB0C2137200BB0BDE8F040CC
:100C400004B000F090BB00F099FB00F0F80141F017
:100C50000301312000F087FB0A21EDE70821122073
:100C600000F081BB08B568B1332000F087FB00F0CD
:100C7000BE01332000F077FB19213B20BDE808407E
:100C800000F071BB332000F079FB00F0BE0141F0B1
:100C90000101332000F067FB1D21EEE738B5044663
:100CA00022200D4600F05FFB00210E2000F05BFBD0
:100CB00000210D2000F057FB012000F05FFB30F019
:100CC000F80304D100F0ECF8012005F02DFB2946D3
:100CD0002046BDE8384000F09BBB00000FB407B5CC
:100CE000064B04AA1B6852F8041BD868019209F04D
:100CF00035F803B05DF804EB04B07047F002002053
:100D000010B50C4C2379022B02D0032B07D010BD59
:100D1000FFF7D8FC084B1B68BDE810401847204679
:100D200000F0E8FB94F8280000F064FB0123237135
:100D3000024BF0E7C40F0020B80F0020C00F0020C6
:100D400010B5044604F044FA2046074B40F8283B0F
:100D50001022002106F096FD012384F83830034B61
:100D60002360204610BD00BF8CFC000800FD000879
:100D70002DE9F041364C277988B0884616461D4645
:100D800047B134483946FFF7A9FF4FF0FF3008B0AC
:100D9000BDE8F081FFF732FE4046FFF739FE0E98BE
:100DA000FFF730FC3046FFF71DFC2846FFF720FC1C
:100DB0002948FFF793FF4FF4807006F0FDFB274BA7
:100DC000186028B92648FFF789FF6FF00100DEE7B9
:100DD000244BA3604FF4FA6363620E23237307234B
:100DE000636105236385082363834FF480334FF0E9
:100DF0000108E36120460423238484F805802761E9
:100E000084F8198084F8228084F8288000F072FB2E
:100E100025466E4605F8100B0FCD0FC695E80F005E
:100E200086E80F0094E80F00FFF7FCFDA5F1100C19
:100E3000BCE80F006E460FC695E80F0086E80F006D
:100E400094E80F00FFF740FC84F8048038469EE7E2
:100E5000C40F00203FF1000876F100087810002050
:100E6000A3F100082021F636014B1879704700BF26
:100E7000C40F002008B5064804F03CFA054804F009
:100E800039FA00F022FB044B01221A7108BD00BFA1
:100E90008010002038100020C40F0020FFF7EABFA8
:100EA00008B5064804F026FA054804F023FA00F0D5
:100EB00009FB044B01221A7108BD00BF80100020FD
:100EC00038100020C40F0020014B1876704700BF77
:100ED000C40F0020014B5861704700BFC40F0020B1
:100EE000014B1861704700BFC40F0020014B1873FD
:100EF000704700BFC40F0020014B5876704700BFF9
:100F0000C40F0020014B5883704700BFC40F00205E
:100F1000014B83F82E007047C40F0020014B9860EE
:100F2000704700BFC40F0020014B83F822007047B8
:100F3000C40F0020014B5885704700BFC40F00202C
:100F400070B50A4E88B0012006F1100500F021FAB4
:100F50000FCD6C460FC495E80F0084E80F0096E8AB
:100F60000F00FFF704FE08B070BD00BFC40F0020E3
:100F700070B50A4E88B0012006F1100500F009FA9C
:100F80000FCD6C460FC495E80F0084E80F0096E87B
:100F90000F00FFF71BFC08B070BD00BFC40F00209E
:100FA000034B4FF480720021186806F06BBC00BF41
:100FB0007810002010B5084C2379022B0BD107487C
:100FC00004F098F9FFF777FC01232371044BBDE887
:100FD00010401B68184710BDC40F002038100020B7
:100FE000B80F00202DE9F041224C2179022931D19E
:100FF000FFF765FCFFF767FC012805460DD1FFF7F9
:101000006FFC94F8223003B925711B4804F072F983
:101010001A4B1B68BDE8F0411847FFF765FC804696
:10102000FFF76FFC164D07462868FFF77BFC94F826
:10103000223006460BB9012323710F4804F05AF9F8
:10104000104B28681C683A4643463146A446BDE822
:10105000F0416047032908D10B4804F04BF9FFF732
:10106000FDFD01232371094BD3E70948BDE8F04199
:10107000FFF734BEC40F002038100020B40F00204A
:1010800078100020B00F002080100020BC0F00203E
:10109000EAF0000870B5094E8AB006F11005089014
:1010A0000FCD6C460FC495E80F0084E80F0096E85A
:1010B0000F00FFF71BFD0AB070BD00BFC40F00207A
:1010C0002DE97043044699460D46904604F07CFE97
:1010D000636B23B994F838300BB104F01FFC04F1B2
:1010E0002806AE420AD03046FFF7AAF9EB681BB1DA
:1010F0005B68294630469847EB68636342464B4637
:10110000204604F0DFF8BDE8704304F073BE000031
:10111000F0B5194E8DB006F110050746FFF740FFF8
:101120000FCD6C460FC495E80F0084E80F0096E8D9
:101130000F00FFF7F7FA02233371D7B11022002115
:1011400008A806F09FFB0D4B089338460C4B0B93F9
:101150000CF016FB00220B4B0CF08CFB0CF09AFEF3
:1011600002460B46084808A9FFF7AAFF08A8FFF7A0
:1011700067F90DB0F0BD00BFC40F0020010D0008DD
:10118000C0ED000800408F4038100020F0B5244C1E
:1011900063798FB006460D4673B3012B33D0002719
:1011A000204E08970FCE6D460FC596E80F0085E8D4
:1011B0000F0094E80F00FFF767FC032310220021C3
:1011C0000AA8237106F05EFB174B0A933846174BAB
:1011D0000D930CF0D5FA0022154B0CF04BFB0CF0E4
:1011E00059FE02460B4613480AA9FFF769FF0AA8F1
:1011F000FFF726F9002004E00F48FFF76FFD4FF0DE
:10120000FF300FB0F0BD94F82100FFF72BFD28460A
:10121000FFF77EFE29463046FFF740FD676ABFE7CD
:10122000C40F0020D40F0020010D0008C0ED0008FD
:1012300000408F408010002006F1000870B50F4E6E
:101240000F4D104C3046FFF77BFD30460E4E2A46C0
:10125000214600F0FFFF3046FFF772FD30460B4E8F
:101260002A46214600F0F6FF3046FFF769FD2A4680
:1012700021463046BDE8704000F0ECBF80100020F1
:10128000C80100208904000838100020F80F002051
:10129000054B10B50360D0F8C430044613B19B6809
:1012A000B8309847204610BD1CFE00080FB407B5A3
:1012B000064B07491B6805AAD868019208F04EFD45
:1012C00003B05DF804EB04B0704700BFF0020020EB
:1012D00010F20008F8B50D4C0D4F23681646E26871
:1012E0001B040D46136040F08001094804F044FAE5
:1012F0002E44B54205D015F8011B384604F03CFADF
:10130000F7E7A36822681A60F8BD00BF7C110020CF
:10131000B4110020F8B50D4C0D4F23681646E26855
:101320001B040D46136000F07F01094804F024FA05
:101330002E44B54206D00021384604F01DFA05F8C7
:10134000010BF6E7A36822681A60F8BD7C11002043
:10135000B411002010B50446FFF79AFF204601F0B3
:10136000E4F8204610BD07B501228DF807100DF1F5
:101370000701FFF7AFFF03B05DF804FB07B50122DB
:101380000DF10701FFF7C6FF9DF8070003B05DF8F8
:1013900004FB10B504460120FFF7F0FFC0F3C010B6
:1013A000844226D0012C13D0FFF764FD0120FFF703
:1013B000E5FF00F07F010120FFF7D5FF002140206D
:1013C000FFF7D1FF30214120BDE81040FFF7CBBF30
:1013D000FFF750FD2046FFF7D1FF60F07F01C9B253
:1013E0002046FFF7C0FF00214020FFF7BCFF00218F
:1013F000E9E710BD10B504460120FFF7CAFF2CB184
:1014000034213920BDE81040FFF7ADBF1221F8E7C5
:101410000A4601460020FFF75DBF0A46014600204C
:10142000FFF778BF0000000010B50CF0A9F90CA37D
:10143000D3E900230CF048FB0CF0F4FC0446C0F3A5
:1014400007410620FFF78FFFC4F307210720FFF7AE
:101450008AFFE1B20820BDE81040FFF784BF00BF5B
:101460000000000080844E40144910B50A780446FC
:1014700090B932B901230B70114BDA681B681B0459
:1014800013600120FFF77AFF00F0F80121430120EB
:10149000BDE81040FFF767BF094B2AB11A6800206A
:1014A0000870D96812040A60032C1A6803D0DB683C
:1014B00012041A60E5E79B68FBE700BF901200206A
:1014C000601100200120FFF7CFBF0020FFF7CCBF45
:1014D00038B5102204460D4619B906F0D3F9204656
:1014E00038BD002106F0CEF9014B2560E360F6E738
:1014F000C0ED00082DE9FF47504B514C00271F70ED
:10150000054604F061FC0121204600F07BFB04F05D
:1015100071FC2368E2681B041360012004F004FFDF
:1015200004F052FC2046394600F06CFB04F062FCEB
:10153000062004F0F9FE2E78424C042E1CD104F053
:1015400043FC3946204600F05DFB04F053FC0120CB
:1015500004F0EAFE63681A6823681A4214BF012681
:101560003E4604F031FC2046012100F04BFB04F024
:1015700041FC012004F0D8FE2368E2683248DFF81D
:10158000EC80324C1B041360314B9A681B6813606B
:101590000821002204F0CEF82E4804F0B7FE002007
:1015A000FFF762FF2C496846FFF792FF69462B4818
:1015B00003F0CFFF6846FEF743FF29496846FFF76F
:1015C00087FF6946274803F0C4FF6846FEF738FFE7
:1015D0004FF0030900235F1CDBB2D8F80020B2FBF8
:1015E000F9F29A420ED903EB430304EB030AE05CE1
:1015F000FFF7CFFE9AF802109AF80100FFF7B3FE4A
:101600003B46E8E76879184CFFF7C3FE95F82800D9
:10161000FFF7F0FE4220FFF7B1FE38B92046FFF792
:1016200045FE4FF07E5004F071FEF3E7A868FFF727
:10163000FBFE304604B0BDE8F08700BF90120020EA
:101640009811002060110020B4110020DDF1000885
:101650007C110020CDCCCC3DE50F0008C01000204F
:10166000B50F00081011002010F20008D001002072
:1016700073B5224D224C234E0A21284603F00EFF5B
:101680002846214D2246314600F0E4FD132128462C
:1016900003F004FF2246314628461C4D00F0DAFDD7
:1016A0004FF0FF330093062205230721284604F05C
:1016B00095F822461649284600F0CCFD154B1C240F
:1016C00022461846002106F0DDF8162103F09CFEA4
:1016D000114B22461846002106F0D4F8002103F0F1
:1016E00080FE0E4B22460021184606F0CBF8212141
:1016F00002B0BDE8704003F074BE00BFC01000200F
:10170000C8010020F554000810110020B411002079
:10171000911200087C110020981100206011002017
:101720000FB407B5064B04AA1B6852F8041BD8680F
:10173000019208F013FB03B05DF804EB04B07047AE
:10174000F002002013B5084B0024CDE9003401223B
:10175000082307212046FEF775FFFEF75DFF034BC8
:101760001C7002B010BD00BF2021F636911200207F
:1017700010B5FFF793FBFFF7E5FF034B00201B6855
:10178000BDE81040184700BFD412002010B5FFF785
:1017900085FBFFF7D7FF034B02201B68BDE8104015
:1017A000184700BFD412002020292DE9F0418046BF
:1017B0000C4617461E4603D91748FFF7B1FF2024F1
:1017C000164D22464146284605F05AFF144B1F800D
:1017D000144B1E702B782E46B3B9134BAD781B7883
:1017E000EB1A5D425D41114B1B787BB9FFF756FB4D
:1017F000FFF7A8FF75B10E4B70781B680D49221FCB
:10180000D2B2BDE8F04118470025ECE70A48FFF7DF
:1018100087FFEFE7BDE8F081BDF2000892120020DB
:10182000DE120020DC120020E012002091120020C5
:10183000D81200209612002002F3000808B5074BCA
:101840001B782BB9FFF72AFBBDE80840FFF77ABFEA
:101850000348BDE80840FFF763BF00BF91120020B6
:1018600002F300080C4B13B518700C4B19600C4BAD
:101870000C491A600C4B009304460C4A0C48FFF7C5
:1018800077FA0C4B00221A705C70FFF707FB02B06E
:10189000BDE81040FFF756BFE0120020D412002030
:1018A000D81200208D1700083D180008A91700085D
:1018B00071170008B2120020F7B5174F3C7834B109
:1018C00016482146FFF72CFF012003B0F0BD1C296C
:1018D00005D913482022FFF723FF0320F5E7114D18
:1018E0000E1DAA70F6B20A460146281D2C70EE7035
:1018F00005F0C6FE0C4A0823CDE90032214601233B
:1019000007220E20FFF74EF831462846FFF728F849
:1019100001233B702046D8E79112002032F20008E4
:1019200073F20008B21200202021F63643692DE937
:10193000F0410D46D907044628D58168334F8268A7
:10194000334E836833483940B94202EA060204BF85
:101950000127A760B24203EA000304BF4FF4807678
:10196000A660834204BF4FF48030A06027488142C4
:1019700005D027498A4202D0264A934206D1264BF7
:10198000264A1B6852F8250001219847E2686369DE
:10199000920708D09F0706D51F4B204A1B6852F8B4
:1019A000250000219847A169626963698E070AD5FD
:1019B000900508D5190406D5174B184A1B6852F82C
:1019C000250005219847A7696669626917F0040731
:1019D00006F4806609D046B1120406D50E4B0F4AB4
:1019E0001B6852F825000721984763695FB156B11B
:1019F0001B0408D5084B094A1B6852F82500022130
:101A0000BDE8F0411847BDE8F08100BF03000004C5
:101A10000003000800000310EC120020E412002074
:101A200000210148FFF782BF00640040FFF7F8BFC4
:101A3000FFF7F6BF01210148FFF778BF00680040BB
:101A4000FFF7F8BFFFF7F6BF30B5036891FAA1F4CE
:101A5000B4FA84F491FAA1F10325B1FA81F164009A
:101A600005FA04F4490023EA040302FA01F11943D8
:101A7000016030BD00B5002389B007286FD8DFE8CA
:101A800000F00413202D3A4754610093364B374839
:101A90001A6B42F001021A631B6B03F001030093FF
:101AA000009B09B05DF804FB01932F4B30481A6B83
:101AB00042F002021A631B6B03F002030193019BC5
:101AC000EFE70293284B2B481A6B42F004021A638B
:101AD0001B6B03F004030293029BE2E70393224B88
:101AE00025481A6B42F008021A631B6B03F00803C7
:101AF0000393039BD5E704931B4B20481A6B42F0DA
:101B000010021A631B6B03F010030493049BC8E7D5
:101B10000593154B1A481A6B42F020021A631B6B8F
:101B200003F020030593059BBBE706930E4B154876
:101B30001A6B42F040021A631B6B03F040030693DA
:101B4000069BAEE70793084B0F481A6B42F08002E2
:101B50001A631B6B03F080030793079BA1E70B48F5
:101B600004F09AFC00209CE700380240000002408C
:101B70000004024000080240000C02400010024035
:101B80000014024000180240001C0240E4F5000866
:101B9000431C10B5044604D176220649064803F0DA
:101BA000FDFE2046002100F00BFE04F00F04012092
:101BB000A04010BD05F600085FF6000870B50446A9
:101BC0004B1C0E46218216D0C1F30310FFF752FFC3
:101BD00005463046FFF7DCFF238A074A656103F0BC
:101BE0000F03206052F82330A36105F1100318356C
:101BF0006360A560E56070BD1CF90008B0F91000D5
:101C000000F076BE0A4619B981694069FFF71CBF2A
:101C10000122F9E74C23F0B54343224E224F1A1D0F
:101C2000324400244FF0010E1E448C4205D101467F
:101C3000BDE8F0401D4804F02FBC33680EFA04F5EF
:101C40001D422BD0136B7D690EFA03F32B4225D076
:101C5000D2F818C07B61156805B3FA6833EA02024E
:101C600003D1BA6833EA020214D10F4A916833EA09
:101C7000010103D1D26833EA02020DD1DCF8102051
:101C8000134214BF01210221094B28461B68BDE8FD
:101C9000F04018470221F7E70121F5E7013404324B
:101CA000C3E700BFF0120020003C014099F6000895
:101CB0000415002006210846FFF7ACBF05210846A1
:101CC000FFF7A8BF01210420FFF7A4BF01210320D3
:101CD000FFF7A0BF01210220FFF79CBF01210846AA
:101CE000FFF798BF01210020FFF794BF012910B52D
:101CF00018D11B4C838952B1A26803F00F0399409D
:101D00001143A160836843F00103836010BDA268A2
:101D100003F00F03994022EA0101A160836823F0D8
:101D20000103F2E70229F1D10D4983895AB1CC6848
:101D300003F00F03012202FA03F32343CB6083680D
:101D400043F00203E1E7CA6803F00F03012404FA39
:101D500003F322EA0303CB60836823F00203D4E792
:101D6000003C0140B0F90C3099B270B501F00F069B
:101D700006F00C0404F1804404F59C3401F00301E6
:101D8000A56889000F228A40C3F3031325EA0205E0
:101D90008B402B43A3600F4B01221968B2401143C3
:101DA00019608468E50742BF996811439960A107EB
:101DB00042BFD9680A43DA6090F90030002B08DB93
:101DC0005909012203F01F0302FA03F3024A42F801
:101DD000213070BD003C014000E100E02DE9F04FF2
:101DE00092464A1C85B080460C4666D0002203927B
:101DF000334A344F516C41F480415164526C02F4C7
:101E000080420392039A04F00F090C2202FB09722C
:101E1000C4F303105568062D47D8DFE805F0043AEF
:101E20003C3E40424400284E0193FFF723FE0C2124
:101E300001FB09F17A1857F801E0244FA8F80C408B
:101E40004C21694301247B5892F90820C8F80450BA
:101E500004FA0EF44FF0000B1C4388F80020C8F879
:101E600008B07C50132101FB05E507EB8501019BC0
:101E70004B60174BC861C3F800A0164BC1F83490F3
:101E80009B681032404643F82260FFF76BFF5846CC
:101E900010E0114EC8E7114EC6E7114EC4E7114ECF
:101EA000C2E7114EC0E7114EBEE7114804F0F4FA44
:101EB0004FF0FF3005B0BDE8F08F0846FAE700BFED
:101EC00000380240C4F60008E51C0008F0120020AB
:101ED0000415002000ED00E0DD1C0008D51C000802
:101EE000CD1C0008C51C0008BD1C0008B51C00085E
:101EF00072F600088389184A03F00F03012110B518
:101F000001FA03F39468DB431C409460D4681C40DE
:101F1000D46014682340136090F90030002B0CDB70
:101F20005A0903F01F0301FA03F320320B4941F869
:101F30002230BFF34F8FBFF36F8F90F90030002B2B
:101F400009DB5A09012103F01F0301FA03F3603290
:101F5000024941F8223010BD003C014000E100E0A0
:101F6000838903F00F020C235343104A70B5446871
:101F7000D658FFF7BFFF4C210D4A6143012000FAFC
:101F800006F55058132303FB046320EA0500505064
:101F900002EB830000214160981D0C3302EB8000AE
:101FA00002EB83034160596070BD00BFC4F60008B6
:101FB000F012002008B503F07BF8002008BD0000F7
:101FC00008B50A4B1B684BB103F022FA04F021F963
:101FD0004FF47A7200230BF045FF08BD03F0BCF804
:101FE0004FF47A73B0FBF3F008BD00BF0815002072
:101FF00010B588B003F0E8FE052101A803F004FA4B
:102000000424039B019A1A60962004F08DF9019B29
:10201000049A1B041360962004F086F9013CF0D169
:102020000424039B019A1A604FF4C87004F07CF9F1
:10203000019B049A1B0413604FF4C87004F074F9F8
:10204000013CEED1DCE7000070B50D46A0B00446BF
:1020500003F0BAFE2B4622468021684607F002FFB5
:10206000051E03DC03F0C6FE20B070BD094B1B68E3
:1020700023B903220221084800F08EFE064E0024F8
:102080001DF804103046013401F068F8A542F7D17C
:10209000E8E700BF50150020E81600200FB407B590
:1020A00004A951F8040B0191FFF7CEFF03B05DF8CE
:1020B00004EB04B07047000008B502F0A7FF01F080
:1020C000ABF802F093FF02F0A1FF024B01221A606D
:1020D00008BD00BF081500200020704703680122DA
:1020E0001B6900211847036800221B691146184725
:1020F00003681B69184703689B69184703689B6A54
:10210000184700290CBF6FF018000020704701200D
:1021100070471120704770476FF01C0070476FF0D8
:10212000150070470120704700207047704700007D
:10213000F8B5074E15460C468F18BC4205D014F86A
:10214000011B304601F00AF8F7E72846F8BD00BF4A
:10215000E816002038B58DB215F0010405D0084806
:1021600000F096FD041C18BF0124EB0605D50448B9
:1021700000F0A4FD08B144F01004204638BD00BFB3
:10218000E816002010B5044605F01EFA204610BDE2
:1021900010B50C462AB1044800F0CEFF2070012093
:1021A00010BD104610BD00BFE816002038B51D4612
:1021B000074B0360074B1B68044633B9064800F021
:1021C000EBFD2946044800F0AFFD204638BD00BFB6
:1021D00000F8000850150020E81600200020704785
:1021E0000020704708B5012000F036F80C4A13684B
:1021F00010B51844EFF30881884205D3094B0C222F
:102200001A604FF0FF3010BD07490C6824B1074930
:10221000096821448842F1D21060184610BD00BF01
:10222000D4020020201900201C15002020150020B9
:10223000074C08B523680546986804F059FC2368E4
:10224000D86804F055FC0DB1FFF7D2FEFEE700BFE1
:10225000F00200200120704708B5FFF7E9FF0120D8
:102260007047002105F030BC7047704708B5FFF794
:10227000FBFF08BD08B5FFF7F8FF08BD10B50378F0
:1022800003F00303012B04460CD02BB140F2A952FA
:102290000549064803F082FB237843F002032370CC
:1022A000012010BD002010BD48F800089FF800086C
:1022B00010B5037803F00303022B044605D040F267
:1022C000B1520549054803F069FB237823F0030365
:1022D00043F00103237010BD48F80008C5F800085A
:1022E0003F2870B504462FDC184D55F820305A1C95
:1022F00013D1022811DCFFF773FF034658B92046BB
:10230000FFF76CFF034630B9114E3378BFF35B8F94
:10231000DB0704D50F4B45F82430184670BD304616
:10232000FFF7ACFF0028F5D04FF41653032202212B
:102330000848FFF73BFF3046FFF7BAFF064A074958
:102340000448FFF787FFE5E70023E6E7D401002014
:102350000C15002018150020C80100202D210008B0
:1023600038B50546FFF7BCFF0B4B002443F825406A
:1023700030B904F073FA092303604FF0FF3038BD21
:1023800003685B699847051E04DA04F067FA6D423A
:102390000560F2E7204638BDD4010020FFF7E0BF1A
:1023A00038B50C461546FFF79BFF38B904F056FACE
:1023B000092303604FF0FF34204638BD03682146EF
:1023C000DB682A469847041EF6DA04F047FA6442AE
:1023D0000460EFE708B5131E06DA04F03FFA16238F
:1023E00003604FF0FF3008BD04D0FFF7D9FF40EA8B
:1023F000E07008BD184608BD38B50C461546FFF715
:102400006FFF38B904F02AFA092303604FF0FF3454
:10241000204638BD036821469B682A469847041E1B
:10242000F6DA04F01BFA64420460EFE7002A08B50C
:1024300003DBBDE80840FFF7DFBF04F00FFA162307
:1024400003604FF0FF3008BD10B5FFF749FF0446A9
:1024500028B904F003FA09230360204610BD03687D
:10246000DB699847041EF8DA04F0F8F96442046066
:102470000024F2E71FB504220C4640230DEB0201B5
:1024800001900DF109008DF8083005F0F9F82146AA
:1024900002A804F06BFC044630B10198FFF7D4FFAA
:1024A00010B12046FFF7DDFE204604B010BDFFF757
:1024B000CBBF38B50C461546FFF712FF38B904F00C
:1024C000CDF9092303604FF0FF34204638BD03687F
:1024D00021461B692A469847041EF6DA04F0BEF925
:1024E00064420460EFE7FFF7E4BF38B50D46FFF73D
:1024F000F7FE044630B904F0B1F9092303604FF048
:10250000FF3038BD0368DB699847002814BF4FF4DB
:1025100000534FF400436B60236820469B6A984742
:102520002861002038BDFFF7E0BF05F04DB800007E
:10253000034610B553F8042B044602B90360226821
:102540009A4204D05E220349034803F027FA206828
:1025500010BD00BF84F70008E3F7000810B504467B
:102560000948FFF7E5FF0023084A194652F82300FF
:10257000A04208BF42F823100133402BF6D1024895
:10258000FFF7D6FF10BD00BF10150020D4010020BA
:1025900010B50F48FFF7CCFF0E4B032453F824204F
:1025A0006AB10134402CF9D104F058F918230360C2
:1025B0000748FFF7BDFF4FF0FF34204610BD4FF036
:1025C000FF32034843F82420FFF7B2FFF5E700BFCE
:1025D00010150020D401002010B50446FFF7D8FFE5
:1025E0000028A4BF014B43F8204010BDD4010020B7
:1025F00070B506460C46FFF7EFFF054690B1214641
:10260000FFF738FF044630B9074B53F825209642B0
:1026100003D143F82500204670BD04F01FF90923BB
:102620000360F8E70446F6E7D40100200EB42DE974
:10263000F04185B00546FFF7ABFF041E13DB002316
:10264000294602A8019303F0FBFD02A803F04AFE0D
:102650001B4D064668B904F001F91323036045F8E1
:1026600024604FF0FF34204605B0BDE8F04103B0D0
:10267000704702A803F024FE074602A837B103F012
:1026800028FE0190019B45F82430ECE703F00FFE93
:1026900006460028DFD0036802A8D3F8088003F0BC
:1026A000FBFD0B9B024601A93046C04706460028A9
:1026B000E8D004F0D3F87642066045F82470D0E7FD
:1026C000D401002073B50E461849054605F01CFBE1
:1026D000044620B9FFF704FE204602B070BD14493D
:1026E000284605F011FB20B90120FFF7F9FD012470
:1026F000F2E71049284605F007FB20B90220FFF752
:10270000EFFD0224E8E72B78402B07D10422691C57
:102710000DEB020004F0B4FF019CDDE726F400415C
:102720002846FFF783FF0446D6E700BF0CF90008F0
:1027300013F9000804F9000870477047074B08496F
:102740009A68084810B5043A52F8044F41F8044F0B
:102750008142F9D14FF000529A6010BD00ED00E0C7
:10276000FCFFFF1FC001002008B5FFF7E7FFFFF7E0
:10277000A3FCFFF7E2FF08BD08B5FFF7DDFFBDE8EA
:102780000840FDF7E5BD30B5C36891FAA1F4B4FA8D
:1027900084F491FAA1F10325B1FA81F1640005FAFC
:1027A00004F4490023EA040302FA01F11943C16069
:1027B00030BD012A02D0022A18BF0022FFF7E3BF72
:1027C0002DE9F0410E46411C044604D13E22444905
:1027D000444803F0E3F804F00F08434BC4F303103C
:1027E00053F82850FFF746F906F0070704468368B8
:1027F00095FAA5F1B1FA81F195FAA5F20320490005
:1028000000FA01F1B2FA82F223EA01035200022136
:1028100001FA02F21343A36087425AD8DFE807F0B7
:102820005E1D021DB8F1070FC6F303203BD9626A93
:102830002B0A93FAA3F1B1FA81F193FAA3F34FF0C3
:102840000F0EB3FA83F389000EFA01F19B0022EA1E
:10285000010200FA03F3134363623B46226895FAD0
:10286000A5F0B0FA80F095FAA5F14FF0030EB1FA99
:1028700081F140000EFA00F0490022EA00028B408C
:10288000013F1343012F236005D8636832074CBF13
:102890002B43AB436360C6F3011229462046BDE8D3
:1028A000F041FFF786BF226A95FAA5F3B3FA83F3E6
:1028B00095FAA5F14FF00F0EB1FA81F19B000EFAD7
:1028C00003F3890022EA030200FA01F313432362AF
:1028D000C3E767220249054803F060F80023BDE71B
:1028E0005CF900085FF600081CF9000853000108B5
:1028F000431C70B506460D4604D188221B491C486E
:1029000003F04CF806F00F021A4BC6F3031053F80D
:102910002240FFF7AFF804FB04F2016802EB420328
:102920000B40B3FBF2F3013B012B05D8EB1E022B4E
:10293000436809D823434360032D08D1012221466F
:10294000BDE87040FFF735BF23EA04034360012D63
:10295000F4D0052D01D0022D01D10222EFE721464E
:102960000022BDE87040FFF70EBF00BF5CF9000811
:102970005FF600081CF9000870B5A6B034220021EB
:1029800002A804F07FFF5C2200210FA804F07AFF68
:102990002A4B1D68002D4FD1294C019501261E6040
:1029A000236C43F080532364236C03F08053019322
:1029B000019B00F05DFC042302A802930895049695
:1029C00000F0C0FF10B11F4803F066FDA36823F4B8
:1029D000F813A360A36823F4F813A360236F43F4F0
:1029E0008073236720230F930FA84FF480731F93E6
:1029F00000F058FD10B1144803F04EFD134B14487D
:102A000001221A60134B036003220023826041F607
:102A1000FF7243774360C26003614361836101F0E9
:102A20005EF910B10C4803F037FD094801F089FA4E
:102A300010B10A4803F030FD26B070BD2C150020FF
:102A400000380240B4F90008D4F900083C0E4742AF
:102A50003015002000280040FDF9000817FA000892
:102A6000F0B51F4B1F491C681F4A5D688BB00C40B6
:102A700015401E460F461868084084422BD15868FE
:102A80001040854227D105F03F0001F051FA049033
:102A9000C5F3042001F04CFA01380590280C01F030
:102AA00047FA44300690C4F3054001F041FA039020
:102AB000C4F3062001F03CFA029004F07F0001F01C
:102AC00037FA01220190694601A802F085FF00B1A2
:102AD00000980BB0F0BD346875683C401540CAE7FB
:102AE000002800407F7F7F003FFFFF00024BD86837
:102AF000C0F30010704700BF00280040214B224A5D
:102B00002DE9F0411D691C689E6AC5F30E0514404D
:102B100018461746196811408C422ED1996A8E4288
:102B20002BD1C4F3054001F003FA0746C4F3062095
:102B300001F0FEF9804604F07F0001F0F9F9134A34
:102B400013493C2313FB08004FF4616303FB0700A8
:102B50001368146898420B683CBF03F5A83303F56B
:102B6000C0731B1B03440B6010600868013DC00369
:102B700005EB9000801BBDE8F0810468866A3C404C
:102B8000C8E700BF002800407F7F7F002815002095
:102B90002415002030B591B000211422044602A86B
:102BA000019104F06FFE03F00FF92A4B2A4A1A60D4
:102BB00007A90122204602F05FFF002848D00D9BA4
:102BC00003B907238DF804300B9B01338DF80530D2
:102BD0000A9B8DF806300C9B443B8DF80730099B0F
:102BE0008DF80830089B8DF809300024079B8DF87C
:102BF0000A308DF80B4005940694FFF77FFF9DF88F
:102C000009109DF80A2013483C2313FB01229DF86C
:102C100008304FF4616101FB0323104A13600E4B2F
:102C2000224601A99D6A01F0B3F810B10C4803F0E7
:102C300033FC002202A9074801F00AF910B1094843
:102C400003F02AFC044A936A9D42FCD103F0D2F8B7
:102C500011B030BD3015002000280040281500209C
:102C600030FA000847FA00080FB407B5064B0749C9
:102C70001B6805AAD868019207F070F803B05DF8E8
:102C800004EB04B0704700BFF00200205EFA0008B9
:102C90004368094A9B0182B0D3581A68120706D5C7
:102CA000002201921A6801925A680192019A1868EA
:102CB000C0F3401002B07047341700204368034A45
:102CC0009B01D3581868C0F3C01070473417002018
:102CD00042681449920110B4046854505318826831
:102CE0005A60C2689A600269DA6042691A61026ACF
:102CF0009A610022DA84DA619A84DA859A85B0F9D9
:102D00001A20013206D108225A6118465DF8044B98
:102D100001F0B1BEB0F9182001320CBF04220C2220
:102D2000F2E700BF3417002010B581600C46FFF7B2
:102D3000CFFF28B121460348BDE81040FFF794BFFC
:102D400010BD00BF5EFA0008124B984217D0A3F5E1
:102D50004C43984215D003F58063984213D003F595
:102D60008063984211D003F5806398420FD003F539
:102D7000444398420CBF05204FF0FF3070470020BD
:102D800070470120704702207047032070470420DD
:102D9000704700BF00100140F0B50E4687B00446F2
:102DA0005B493046154602F06BFC5A4907462846F7
:102DB00002F066FC0146384602F03CFC206001301F
:102DC00004D13D225449554802F0E8FD022E0CD0B2
:102DD000032D0AD04E49022002F052FC874202D154
:102DE0004F4803F059FB002700E001274D4B2068B6
:102DF00098424FF000031AD100934B4B5A6C42F0AB
:102E000010025A645B6C03F010030093009B474B65
:102E1000984229D100230593434B5A6C42F020027B
:102E20005A645B6C03F020030593059B1CE0404A49
:102E300090420BD101933C4B1A6C42F400321A645D
:102E40001B6C03F400330193019BE0E7394A904285
:102E500040D10293344B1A6C42F480221A641B6CEA
:102E600003F480230293029BFFF76EFF002860604B
:102E700004DAA4222849304802F090FD2449304663
:102E800002F0B4FB2349284602F0B0FB721C03D0C9
:102E900001213046FFF72CFD6B1C03D00121284691
:102EA000FFF726FD4FF41653A3600023E360236170
:102EB00063612362268365832046FFF709FF3FB1E4
:102EC0001E4B1F4801221A6021464C2204F0D8FBF9
:102ED00007B0F0BD1B4A90420BD10393124B1A6C02
:102EE00042F400221A641B6C03F400230393039B37
:102EF000BAE7154A90428AD104930B4B1A6C42F4FC
:102F000080121A641B6C03F480130493049BABE7D8
:102F10006CF50008F4F4000888FA0008E4FA0008E8
:102F200000FB00080010014000380240001401407E
:102F3000004400400048004035FB000850150020C8
:102F4000E8160020004C004000500040002808DB3C
:102F50004209012300F01F0003FA00F0014B43F87F
:102F60002200704700E100E000280DDB4309012248
:102F700000F01F0002FA00F02033044A42F8230058
:102F8000BFF34F8FBFF36F8F704700BF00E100E0CA
:102F9000F7B5FFF7D9FE071E26DB144E56F82700BB
:102FA00010B3134CBD0163591A68120606D5DB68CD
:102FB000190603D50F4B01211B68984763591A68FE
:102FC000920608D5DB68980605D50A4B56F8270007
:102FD0001B680021984763591A68110704D55A697C
:102FE000D20744BF5B68019303B0F0BD58150020C1
:102FF00034170020541500200148FFF7C9BF00BF57
:10300000001401400148FFF7C3BF00BF005000405B
:103010000148FFF7BDBF00BF004C00400148FFF76B
:10302000B7BF00BF004800400148FFF7B1BF00BF75
:10303000004400400148FFF7ABBF00BF0010014053
:10304000034B19604168034B43F82120704700BFD0
:10305000541500205815002030B490E818002C4872
:10306000834233D00AD8A0F50060834228D000F50F
:103070008060834227D0002318460FE02548834212
:103080000AD000F58060834223D0A0F544408342FB
:10309000F1D1214B352001E0204B2520204DA4010A
:1030A000FAB1C9B92959CA6842F02002CA601D4A5A
:1030B00000F11001926830BC42F82130FFF746BFA2
:1030C000194B2620EAE7194B2720E7E7184B342055
:1030D000E4E7184B4720E1E72959CA6842F080022B
:1030E000E4E72B59DA6849B922F02002DA60DB689C
:1030F00013F0800F09D130BCFFF736BF22F08002F9
:10310000DA60DB6813F0200FF4E730BC704700BFD3
:10311000004C004000100140053000083530000828
:103120003417002000ED00E0293000081D300008B1
:1031300011300008F92F000838B5446805462846C4
:10314000FFF7A6FD0028FAD0A401034B1B595868CD
:10315000C0F3080038BD00BF3417002070B54568C3
:1031600006460C463046FFF7A9FD0028FAD0AD010F
:10317000024B5B59C4F308045C6070BD3417002037
:1031800008B50E4AC36D934214D008D8A2F58062E8
:1031900093420FD00A4803F07FF9002008BD094A86
:1031A000934203D002F580629342F3D1BDE8084018
:1031B00000F04AB9BDE8084000F036B9003C0040D4
:1031C00047FB000800300140DFF830D0002103E069
:1031D0000B4B5B58435004310A480B4B42189A4240
:1031E000F6D30A4A02E0002342F8043B084B9A4215
:1031F000F9D301F01FFEFDF705F87047000002202B
:1032000048060108C8010020B40C0020B80C0020BA
:1032100024190020FEE7704708B50B4B1A6842F4EA
:1032200000721A601A6842F480621A601A6842F4E6
:1032300080721A60032000F009F80F20FEF7BAFE32
:10324000FFF7E9FF002008BD003C0240074AD368B1
:1032500023F4E0631B041B0C43F0BF63000243F440
:10326000003300F4E0600343D360704700ED00E0FA
:10327000014B01221A60704720000E4237B500232F
:103280000193184B184C1A6C42F080521A641B6C54
:1032900003F080530193019B144B01221A60FEF747
:1032A0008FFE05466368DA030BD5114B0E4C0122E5
:1032B0001A60FEF785FE054663689B030AD5002069
:1032C00006E0FEF77DFE401BB0F57A7FEAD90320C9
:1032D00003B030BDFEF774FE401BB0F57A7FEBD92A
:1032E000F5E700BF003802400070004040000E4289
:1032F00044000E422DE9F0410D46044610B901206C
:10330000BDE8F081444B1A6802F00F028A4228D3CC
:1033100021688F072DD4C80740D43F4B1A6802F0AC
:103320000F02954266D3226851076CD4130707D564
:103330003A4A2169936823F4604343EAC1039360E6
:1033400000F0B8FA354B364A9B68C3F30313D35CDD
:10335000D840344B18600F20FEF72CFE0020BDE84B
:10336000F081CAB21A701B6803F00F039942C6D1EC
:10337000CEE72A4B11F0040F1EBF9A6842F4E052C8
:103380009A600E0742BF9A6842F460429A609A6857
:10339000A06822F0F00202439A60BCE762681F4B0B
:1033A000012A1DD11B6813F4003FA8D01B4EB3683F
:1033B00023F003031343B360FEF702FE41F28838A3
:1033C0000746B368626803F00C03B3EB820FA4D026
:1033D000FEF7F6FDC01B4045F3D90320BDE8F081A0
:1033E000911E01291B6802D813F0007FDDE713F05E
:1033F000020FDAE7EAB21A701B6803F00F039D426E
:103400007FF47DAF8FE70549E0688B6823F4E053D4
:1034100003438B608AE700BF003C02400038024053
:103420004DFC0008D8020020044B054A9B68C3F3FA
:103430008223D35C034A1068D840704700380240AA
:103440005DFC0008D8020020044B054A9B68C3F3CA
:103450004233D35C034A1068D840704700380240BA
:103460005DFC0008D80200200F2303600B4B9A6814
:1034700002F0030242609A6802F0F00282609A68E9
:1034800002F4E052C2609B68DB0803F4E05303617E
:10349000034B1B6803F00F030B60704700380240BA
:1034A000003C024003682DE9F74313F0010604468F
:1034B0000BD0AA49866BD1F88C2022F0C06232432F
:1034C000B6FA86F6C1F88C2076099D070BD5A3487D
:1034D000E16BD0F88C2022F0C0520A430029C0F8DA
:1034E0008C2008BF012613F0040512D09B49256BE0
:1034F000D1F88C20B5F5801F22F4401242EA050273
:1035000018BFB5FA85F5C1F88C2012BF6D090025EA
:10351000012618070FD59148616BD0F88C2022F452
:1035200040020A43B1F5800FC0F88C2000F00981F9
:10353000002908BF0125990633D500230193874B45
:10354000874F1A6C42F080521A641B6C03F0805350
:103550000193019B3B6843F480733B60FEF730FDB1
:1035600080463B68DA0540F1EE807C4F3B6F13F4F8
:10357000407340F0FB80236C03F44072B2F5407F4F
:10358000764A40F01681916823F0704021F4F811DA
:1035900020F4407001439160116FC3F30B030B43A0
:1035A00013672368D90642BF6E4B94F858201A60FF
:1035B00023681A0608D56949E06CD1F8942022F4F2
:1035C00040020243C1F894205F0608D56349A06C0D
:1035D000D1F8942022F080620243C1F89420D805EB
:1035E0000CD55E48616DD0F8942022F000620A4349
:1035F000B1F1006FC0F8942008BF0125990508D5E6
:103600005649606CD1F8942022F080520243C1F8F0
:1036100094205A0500F1D180012E40F0DC80524EFA
:103620004E4F00233360FEF7CBFC80463B681B0106
:1036300000F125812268D00701D5A36B1BB191074A
:1036400015D5E36B9BB94549D1F88430D1F8840096
:1036500003F4403300F07060034360680343A068E4
:1036600043EA8013606943EA0073C1F8843053076A
:1036700003D5236BB3F5801F05D0170720D5636BE7
:10368000B3F5800F1CD13549D1F88430D1F88400CE
:1036900003F4403300F0E040034360680343A06854
:1036A00043EA8013206943EA0063C1F88430D1F80B
:1036B0008C00A36A20F01F00013B0343C1F88C304B
:1036C00050051BD5236DB3F1005F17D12348676800
:1036D000D0F88410D0F8843003F0E0433B43A7686F
:1036E000C1F30141013143EA871343EA4163E168D1
:1036F0004908013943EA0143C0F88430110511D566
:103700002369A2681B0643EA821362681343626955
:1037100043EA0273E2685208013A43EA02430F4A5D
:10372000C2F8843001233360FEF74AFC0B4E074693
:1037300033681A0153D4FEF743FCC01B0228F7D9A3
:1037400008E00126F7E6FEF73BFCA0EB08000228A4
:103750007FF607AF032003B0BDE8F08300380240D6
:1037600000700040E011474268004742226C02F4BA
:10377000407293423FF4FFAE3B6F4B4A0121116010
:1037800023F44073002111603B673B6FDB077FF53B
:10379000F2AEFEF715FC41F2883980463B6F980780
:1037A0003FF5E9AEFEF70CFCA0EB08004845F5D963
:1037B000D0E7916821F4F811EDE63C48216DD0F88E
:1037C000942022F000520A43B1F1005FC0F8942027
:1037D0007FF422AF23E7B3F5006F3FF420AF012D54
:1037E0004BD1334D314E00232B60FEF7E9FB0746EA
:1037F00033689B004BD421684E0701D5236B1BB166
:1038000008071AD5636BC3B9284AA069D2F8883073
:1038100003F440330343E06943EA8013606A43EAF8
:103820000063C2F88830D2F88C30E06A23F4F85391
:10383000013843EA0023C2F88C30CA0514D5636D01
:10384000B3F1006F10D11949A269D1F8883003F0A3
:1038500070631343E26943EA8213226A5208013A11
:1038600043EA0243C1F8883001232B60FEF7A8FB2E
:103870000E4C054623689B000FD500206BE7FEF732
:103880009FFBA0EB080002287FF6D0AE62E7FEF7B0
:1038900097FBC01B0228ABD95CE7FEF791FB401BEE
:1038A0000228E7D956E700BF400E474200380240E1
:1038B00070004742204908B58B6803F00C03082BC1
:1038C00007D00C2B20D01D4A1D48042B18BF1046D2
:1038D00008BD4A684B68496813F4800314BF184850
:1038E0001648C1F3881118BF002302F03F02A1FB64
:1038F00000010AF0B7FA104B5B68C3F301430133D0
:103900005B00B0FBF3F008BD4A684B68496813F4EC
:10391000800314BF0A480948C1F3881118BF002367
:1039200002F03F02A1FB00010AF09CFA024B5B6827
:10393000C3F30273E5E700BF003802400024F4003F
:1039400000127A0003682DE9F341DF07044610D422
:1039500023689E0767D423681A0700F1B2802368A2
:103960005B0700F1D080A269002A40F03981002075
:103970001EE0974B9A6802F00C02042A10D09A6855
:1039800002F00C02082A02D15B685D0208D4904B59
:103990009A6802F00C020C2A0DD15A6850020AD51E
:1039A0008B4B1B689903D3D56368002BD0D10120C2
:1039B00002B0BDE8F0816268B2F5803F11D11A68AB
:1039C00042F480321A60FEF7FBFA814D06462B68FE
:1039D0009A03BDD4FEF7F4FA801B6428F7D90320BC
:1039E000E6E77B4DB2F5A02F2B6807D143F4802387
:1039F0002B602B6843F480332B60E4E723F480339F
:103A00002B602B6823F480232B60002ADBD1FEF788
:103A1000D7FA06462B689B039AD5FEF7D1FA801B8E
:103A20006428F7D9DBE76A4B9A6812F00C0F10D0C4
:103A30009A6802F00C02082A02D15B685F0208D57E
:103A4000634A936803F00C030C2B11D153685E0298
:103A50000ED45F4B1A68950702D5E268012AA6D1F9
:103A60001A68216922F0F80242EAC1021A6072E77C
:103A7000E268584BB2B101221A60FEF7A1FA544D28
:103A800006462B68980707D52B68226923F0F803B0
:103A900043EAC2032B605EE7FEF792FA801B02281E
:103AA000EFD99CE71A60FEF78BFA494D06462B6862
:103AB00099077FF550AFFEF783FA801B0228F6D9ED
:103AC0008DE76269444B7AB101221A60FEF778FAF9
:103AD0003F4D06466B6F9F073FF541AFFEF770FA0B
:103AE000801B0228F6D97AE71A60FEF769FA384D8A
:103AF00006466B6F98077FF532AFFEF761FA801BC1
:103B00000228F6D96BE7324B1A6C12F0805228D19A
:103B100001921A6C42F080521A641B6C03F08053BD
:103B20000193019B01262D4D2B68D9051BD5A36858
:103B3000274D012B27D12B6F43F001032B67FEF795
:103B40003FFA234D074641F288382B6F9B0739D542
:103B5000002E3FF408AF1E4A136C23F08053136409
:103B600001E70026DFE72B6843F480732B60FEF744
:103B700027FA07462B68DA05D9D4FEF721FAC01BCD
:103B80000228F7D92BE7052B04D12B6F43F0040350
:103B90002B67D0E72A6F22F001022A672A6F22F0F2
:103BA00004022A67002BCAD1FEF70AFA41F28838CC
:103BB00007462B6F9807CBD5FEF702FAC01B40458E
:103BC000F7D90CE7FEF7FCF9C01B4045BDD906E765
:103BD0000038024000004742800E4742007000401B
:103BE000234DAB6803F00C03082B3FF4E0AE214EED
:103BF0000023022A33602DD1FEF7E2F907462B6835
:103C0000990121D4226AE3691343626A43EA821369
:103C1000E26A43EA0263226B43EA0273A26A144C2B
:103C20005208013A43EA02436B6001233360FEF716
:103C3000C7F9054623689A013FF599AEFEF7C0F92A
:103C4000401B0228F6D9CAE6FEF7BAF9C01B0228C3
:103C5000D5D9C4E6FEF7B4F904462B689B017FF57D
:103C600086AEFEF7ADF9001B0228F6D9B7E600BF15
:103C700000380240600047427047026838B5D36898
:103C800023F0A003D3600446FEF79AF905462368A3
:103C9000DB689B0601D5002038BDFEF791F9401B7B
:103CA000B0F57A7FF3D9032038BD38B50368DA68F8
:103CB0005206044601D5002038BD4FF0FF32DA60CD
:103CC000FEF77EF905462368DB685B06F3D4FEF752
:103CD00077F9401BB0F57A7FF5D9032038BD38B5A8
:103CE0000446B8B1437F03F0FF0213B90277FFF730
:103CF000C3FF022363772368CA225A6253225A629F
:103D00002046FFF7D2FF2368054628B1FF225A62FA
:103D10000423637701252EE09A68206922F4E002EB
:103D200022F040029A606268996802436069024327
:103D30000A439A60E2681A611A69A16842EA01427C
:103D40001A61DA6822F08002DA609B689B0605D46B
:103D50002046FFF792FF08B12368D7E72368A169DF
:103D60001A6C22F480221A641A6C0A431A64FF2225
:103D70005A6201236377284638BD0023092803D8F7
:103D800040EA0310C0B270470A380133C0B2F5E709
:103D9000F8B5037F012B05464FF0020630D0012312
:103DA000037746774B78C8788E780C78002A48D10C
:103DB000DA0603D523F010030A334B70FFF7DDFF5B
:103DC00007464878FFF7D9FF02463046FFF7D5FF90
:103DD00040EA443040EA074040EA02242B68CA2205
:103DE0005A6253225A622846FFF75FFF2B68064645
:103DF00040B1FF225A6204236B7700232B77012600
:103E00003046F8BD24F07F4424F0C0045C60DA68DA
:103E100022F08002DA609B689B060AD42846FFF7EE
:103E20002CFF30B12B68FF225A6204236B772E7768
:103E3000E5E72B68FF225A6201236B7700232B777B
:103E4000DEE71B0243EA0040304340EA4434C5E762
:103E5000F8B5037F012B06460F464FF002052FD021
:103E6000012303770368457708784D788C789B6841
:103E700042BB13F0400308BFCB70FFF77EFF014643
:103E80002846FFF77AFF02462046FFF776FFFB78C9
:103E900040EA034040EA014040EA02243368CA2273
:103EA0005A6253225A623046FFF7FFFE33680546D6
:103EB000A8B1FF225A6204237377002333770125C8
:103EC0002846F8BD13F040034FEA052508BFCB7024
:103ED00045EA00402043CC7840EA0444DEE704F0A1
:103EE0007F3424F0FE441C609A68386922F48022F2
:103EF0009A60FA68996802430A439A60DA6822F085
:103F00008002DA609B689B060AD43046FFF7B5FE54
:103F100030B13368FF225A62042373773577CEE7D6
:103F20003368FF225A620123737700233377C7E790
:103F3000030903EB830300F00F0000EB4300C0B262
:103F40007047037F012B4FF002030FD043770368C4
:103F5000CA225A6253225A629A6842F020029A6038
:103F6000FF225A62012343770023037718467047E4
:103F700003685A6822F0E0025A604268B2F5827F14
:103F80000AD18268B2F5004F02D0B2F5806F03D13A
:103F90001A6822F040021A60826AB2F5005F09D105
:103FA0001A6822F400521204120C1A601A6842F4C1
:103FB00000521A60012380F85130002380F85030FD
:103FC0000320704770B505460C46164629688B6875
:103FD0009B0701D5002070BD621CF8D024B928468B
:103FE000BDE87040FFF7C4BFFDF7EAFF801B8442C5
:103FF000ECD8F4E72DE9F041DDF8188005460F46CE
:1040000016461C462B6898683840B04202D1002002
:10401000BDE8F081621CF6D024B92846BDE8F04125
:10402000FFF7A6BFFDF7CCFFA0EB08008442E9D85C
:10403000F3E713B50B460092802100220446FFF7F8
:10404000D9FF20B1636D43F020036365032002B004
:1040500010BD704738B5044600283BD090F8513069
:1040600003F0FF021BB980F85020FFF7F2FF216830
:10407000A568A06AA269022384F851300B6823F076
:1040800040030B6063682B43E5682B4325692B4392
:1040900065692B43E5692B43256A2B43034302F4EF
:1040A00000752B430B60120C636AB0F5005F02F0E1
:1040B000040242EA030208BFE36A4A6008BF0B61D8
:1040C000CB6923F40063CB6100200123606584F891
:1040D000513038BD012038BD2DE9F3411E4690F81E
:1040E0005030012B04460D46904600F0BA80012363
:1040F00080F85030FDF764FF074694F85100C0B2D5
:10410000012840F0AC80002D5FD0B8F1000F5CD0EA
:10411000032384F8513000236365A363A4F8368039
:10412000A387E38763642364A36822682563B3F5E8
:10413000004F08BF1368A4F8348004BF43F48043E1
:104140001360A36AB3F5005F09D1136823F4005329
:104150001B041B0C1360136843F4005313601368B3
:104160005B065EBF136843F040031360E368B3F57A
:10417000006F63683AD11BB1E38E9BB2012B06D16D
:1041800035F8023BD360E38E013B9BB2E386E38EBE
:104190009BB283B93A4631462046FFF713FF98B9E0
:1041A0003A4631462046FFF744FF002840D02023FE
:1041B0006365012009E023689A68900703D535F804
:1041C000022BDA60DFE74EB90320012384F8513077
:1041D000002384F8503002B0BDE8F081711CD6D0C5
:1041E000FDF7EEFEC01B8642D1D8EDE71BB1E38E92
:1041F0009BB2012B06D115F8013B1373E38E013BF3
:104200009BB2E386E38E9BB2002BC3D023689A68EF
:10421000920703D515F8012B1A73EFE7002ED3D0C0
:10422000731CEFD0FDF7CCFEC01B8642EAD8CBE76B
:10423000A36833B901932368DA6801929B680193FC
:10424000019BA36AB3F5005F01BF2268136843F4C2
:1042500080531360606D003018BF0120B5E7022065
:10426000B3E70220B7E72DE9F04385B09946002374
:10427000ADF80A3090F850300C9E012B04460D46E4
:10428000904600F04581012380F85030FDF798FEFC
:1042900094F851306168DBB2012B07460AD0B1F5C2
:1042A000827F40F03381A268002A40F02F81042BE6
:1042B00040F02C81002D00F01B81B8F1000F00F0C0
:1042C0001781B9F1000F00F0138194F85130C4F850
:1042D0003880012B04BF052384F851300023636527
:1042E00023646364A36AA4F83E90B3F5005FA4F866
:1042F0003C902563A4F83690A4F83490236809D143
:104300001A6822F400521204120C1A601A6842F45D
:1043100000521A601A6850065EBF1A6842F04002E6
:104320001A60E268B2F5006F6BD119B1E28E92B2F9
:10433000012A06D135F8022BDA60E38E013B9BB2ED
:10434000E3864FF00109E38E9BB2B3B9E38F9BB2D2
:104350009BB9A36AB3F5005F40F0AE8001220097DD
:10436000334611462046FFF745FE002800F09D80A9
:10437000636D43F00203636535E0B9F1000F1BD0B4
:10438000E38E9BB2C3B122689368990714D535F8C0
:10439000023BD360E38E013B9BB2E386E38E1FFAC0
:1043A00083F9B9F1000F29D1A16AB1F5005F03D1FA
:1043B000116841F480511160E38F9BB263B12368AF
:1043C0009A68D20708D5DB6828F8023BE38F013BE7
:1043D0009BB2E3874FF00109701CB4D0FDF7F0FDEC
:1043E000C01B8642AFD80325012384F85130002337
:1043F00084F85030284605B0BDE8F0834FF000093E
:10440000DAE719B1E28E92B2012A06D115F8012B32
:104410001A73E38E013B9BB2E3864FF00109E38EF2
:104420009BB21BB9E38F9BB2002B92D0B9F1000F66
:1044300021D0E38E9BB2F3B123689A6891071AD515
:1044400029781973E38E013B9BB2E386E38E1FFA52
:1044500083F96A1CB9F1000F0AD1A16AB1F5005FB6
:1044600004D12068016841F480510160154602E0E2
:1044700015464FF00009E38F9BB273B123689A6829
:10448000D2070AD5DB6888F80030E38F013B9BB286
:10449000E38708F101084FF00109731CBFD0FDF755
:1044A0008FFDC01B8642BAD89DE72368DB689BB2AC
:1044B000ADF80A30BDF80A302268956815F010058D
:1044C00007D0636D43F0020363654FF6EF739360AB
:1044D00001253A4631462046FFF774FD002882D177
:1044E0003A4631462046FFF7A4FD18B12023636504
:1044F000012579E7A368002B7FF476AF0393236847
:10450000DA6803929B680393039B6DE702256BE7D0
:1045100002256FE72DE9FF411D460023ADF80E305F
:104520004368B3F5827F04460E4690460CD18368FB
:1045300053B9042380F85130134600950A46FFF71B
:1045400092FE04B0BDE8F08194F85030012B00F0E9
:10455000CD80012384F85030FDF732FD074694F8F2
:104560005100C0B2012840F0BF80002E7DD0B8F1CC
:10457000000F7AD0042384F851300023636523634D
:10458000A4F83E80A386E38623646364A36AA663DB
:10459000B3F5005FA4F83C8023680DD11A6822F4BB
:1045A00000521204120C1A601A6842F400521A6087
:1045B000E28F013A92B2E287A268B2F5004F02BFE1
:1045C0001A6822F480421A601A6851065EBF1A689F
:1045D00042F040021A60E368CBB1E38F9BB2D3B1E3
:1045E00023689A68D0074FD5DB6826F8023BE38F33
:1045F000013B9BB2E387F0E723689A68D20732D584
:104600001B7B06F8013BE38F013B9BB2E387E38F03
:104610009BB2002BF0D1A36AB3F5005F45D12268AD
:10462000136843F480531360012200972B46114610
:104630002046FFF7DFFCB8B9E368B3F5006F2368E5
:104640004FF001020BBFDB681B7B33803370009798
:104650002B4611462046FFF7CDFCF8B1636D43F0C1
:104660000203636500E03DB90320012384F8513063
:10467000002384F8503064E76B1CC8D0FDF7A0FC21
:10468000C01B8542C3D8EFE7002DEDD0691CA4D034
:10469000FDF796FCC01B85429FD8E5E72368DB68E1
:1046A0009BB2ADF80E30BDF80E306368B3F5827F73
:1046B00023680AD1A268B2F5004F02D0B2F5806F2C
:1046C00003D11A6822F040021A609A68D20606D511
:1046D000626D42F0020262654FF6EF729A60606DA1
:1046E000003018BF0120C0E70220BEE7022028E703
:1046F000704700002E4A0368904212D0B0F1804FFC
:104700000FD0A2F57C4290420BD002F5806290421D
:1047100007D002F58062904203D002F578429042C1
:104720001DD14A6823F070031343214A904204D1FB
:10473000CA6823F44073134328E0B0F1804FF7D0E8
:104740001C4A9042F4D002F580629042F0D002F50B
:1047500080629042ECD002F578429042E8D0164A4E
:104760009042E5D002F580629042E1D002F580628D
:104770009042DDD0A2F598329042D9D002F5806205
:104780009042D5D002F580629042D1D003608B6810
:10479000C3620B688362064B984206D003F58063C0
:1047A000984202D00123436170470B690363F9E724
:1047B00000000140000400400040014010B50446E4
:1047C000A0B190F8393003F0FF021BB980F838200F
:1047D000FFF78EFF022384F839302068211DFFF790
:1047E00089FF012384F83930002010BD012010BD5D
:1047F000036A10B501248C4023EA04030362036AB0
:104800008A401A43026210BD10B5044601220068B6
:10481000FFF7EEFF2368084A934203D002F5806257
:10482000934203D15A6C42F400425A641A6842F02F
:1048300001021A60002010BD00000140FFF7E4BF34
:104840002DE9F0470668C2683369C16923F4405313
:1048500013433361044683680069F2680343606967
:1048600022F41642034322F00C020B431343F3607D
:104870007369A26923F440731343B1F5004F736168
:104880007A4B7CD19E4203D003F580639E4244D193
:10489000FEF7DAFD192505FB00F360684FF06409A7
:1048A0004000B3FBF0F3B3FBF9F34FEA0318FEF754
:1048B000CBFD636868435B00B0FBF3F7FEF7C4FD14
:1048C000636868435B00B0FBF3F3B3FBF9F309FBE8
:1048D0001373DB003233B3FBF9F35B0003F4F877B7
:1048E000FEF7B2FD626868435200B0FBF2FAFEF7D1
:1048F000ABFD636868435B00B0FBF3F3B3FBF9F314
:1049000009FB13A3DB003233B3FBF9F303F0070316
:1049100043443B44B360BDE8F087FEF785FD1925AD
:1049200005FB00F360684FF064094000B3FBF0F34F
:10493000B3FBF9F34FEA0318FEF776FD63686843AB
:104940005B00B0FBF3F7FEF76FFD636868435B0045
:10495000B0FBF3F3B3FBF9F309FB1373DB00323362
:10496000B3FBF9F35B0003F4F877FEF75DFD6268D3
:1049700068435200B0FBF2FAFEF756FDB9E79E42DB
:1049800002D03B4B9E4240D1FEF75EFD6768192581
:104990004FF0640905FB00F3BF00B3FBF7F3B3FB73
:1049A000F9F31F01FEF750FD636868439B00B0FBFD
:1049B000F3F8FEF749FD636868439B00B0FBF3F32F
:1049C000B3FBF9F309FB13831B013233B3FBF9F398
:1049D00003F0F008FEF738FD626868439200B0FB10
:1049E000F2FAFEF731FD636868439B00B0FBF3F316
:1049F000B3FBF9F309FB13A31B013233B3FBF9F348
:104A000003F00F0343EA080383E7FEF70DFD676831
:104A100019254FF0640905FB00F3BF00B3FBF7F362
:104A2000B3FBF9F31F01FEF7FFFC636868439B00CB
:104A3000B0FBF3F8FEF7F8FC636868439B00B0FB3B
:104A4000F3F3B3FBF9F309FB13831B013233B3FB1D
:104A5000F9F303F0F008FEF7E7FC626868439200A0
:104A6000B0FBF2FAFEF7E0FCBDE700BF001001402A
:104A700000140140704710B5044640B390F8393037
:104A800003F0FF021BB980F83820FFF7F3FF22681C
:104A9000242384F83930D36823F40053D3602046AC
:104AA000FFF7CEFE23681A6922F490421A615A6910
:104AB00022F02A025A61DA6842F40052DA600020D9
:104AC0002023E06384F8393084F83A3010BD0120A7
:104AD00010BD00000FB407B5064B07491B6805AAB7
:104AE000D868019205F03AF903B05DF804EB04B020
:104AF000704700BFF002002072FB000802681368D4
:104B000023F0400310B513600446FFF7A3FA10B179
:104B1000054801F0C1FCA36823B92268136843F07B
:104B20004003136010BD00BFABFB00082DE9F04F40
:104B3000884687B004465949BDF94060404615464D
:104B40001F4600F09DFD56498146284600F098FD1D
:104B500054490190384600F093FD5349824630464F
:104B600000F08EFD019B83461946484600F062FD29
:104B700059468146504600F05DFD0146484600F02A
:104B800059FDE065013004D16F224849484800F0E2
:104B900005FF484BE26D9A424FF000034BD1029360
:104BA000454B5A6C42F480525A645B6C03F4805358
:104BB0000293029B232384F858303849404600F082
:104BC00015FD3749284600F011FD3649384600F0FA
:104BD0000DFD731CA4F86050A4F86280A4F8647002
:104BE000A4F8666057D03049304600F0FFFC4FF41F
:104BF0008023A361E36D236001354FF4827308BF06
:104C00004FF4004263604FF03803E36108BFA260D5
:104C10004FF000034FF0070218BFA36063612361E8
:104C2000A362E262E360236263622046FFF766FFED
:104C300007B0BDE8F08F21498A420CD103931E4B87
:104C40001A6C42F480421A641B6C03F48043039391
:104C5000039B2423AFE71A498A420CD10493164BD5
:104C60001A6C42F400421A641B6C03F40043049370
:104C7000049B33239FE713498A429ED105930E4B31
:104C80005A6C42F400525A645B6C03F4005305936F
:104C9000059B54238FE74FF40073AAE7A4F30008A1
:104CA00050F3000828F4000894F40008C1FB000841
:104CB0001EFC00080030014000380240003800406F
:104CC000003C00400034014010290CBF4FF400614B
:104CD0000021012A10B50446C16023D0022A24D045
:104CE00032BB02616261A269B2F5007F05D0002B80
:104CF00014BF00224FF48022A261002B14BF0023B6
:104D00004FF48273636008D0A368B3F5004F04D1F9
:104D10000948FFF7DFFE0023A3602046BDE81040EE
:104D2000FFF7ECBE00210161DCE702610022D9E758
:104D3000022202610122D5E772FB000870B5044629
:104D40000E46FEF71DFA0023022290FBF2F0B0425D
:104D5000DDB203DD0133082B09D10725054B33F8FC
:104D60001530E3612046BDE87040FFF7C7BE90FBF9
:104D7000F2F0ECE762FB000807B583680191B3F538
:104D8000004F024607D10A23012201A9FFF7A4F927
:104D900003B05DF804FBC36D99688907FCD5D16841
:104DA000019AB1F5006F0CBF92B2D2B2DA609A6884
:104DB000D207FCD5D868B1F5006F0CBF80B2C0B285
:104DC000E6E72DE9F84F0A9E84689DF82CB09642DC
:104DD000354680468A4617469946B8BF154694B967
:104DE000AC4202DB2846BDE8F88FBC42B4BF1AF8DB
:104DF000041059464046FFF7BFFFB442B8BF09F858
:104E000004000134ECE73AB10A23534392B2FFF7AE
:104E100063F9002818BF0025002EE3D00A2373434E
:104E2000B2B249464046FFF775FB002818BF00257F
:104E3000D8E700000D4AD2F8883043F47003C2F876
:104E400088300B4B1A68002142F001021A60996009
:104E50001A6822F0847222F480321A60054A5A607D
:104E60001A6822F480221A60D960704700ED00E0D1
:104E70000038024010300024F0B5ADB02C4B0021BA
:104E800001911A6C42F080521A641B6C03F080533B
:104E90000193019B274B02911A6842F440421A6029
:104EA0001B6803F440430293029B012308930028EC
:104EB00039D14FF4803309934FF480030F934FF4AB
:104EC000B47302250826119308A807230E9510969F
:104ED000129513931495FEF735FD38BBFEF7CEF906
:104EE000074618BB4FF4C0731C934FF4807315939F
:104EF00015A84FF000632A931B961D96FEF7D2FA71
:104F00000F2303934FF4A053069305214FF48053CE
:104F100003A8049505970793FEF7ECF9B0FA80F023
:104F200040092DB0F0BD4FF4A023C4E70020F8E7FE
:104F3000003802400070004030B5ADB00023294A6F
:104F40000193116C41F080511164126C02F0805297
:104F50000192019A244A0293116841F44041116080
:104F60001268099302F440420292029A0F930322BC
:104F70004FF4B4730892012202240B921193102271
:104F8000062308A80C920E94109212941393FEF725
:104F9000D9FC10B100202DB030BDFEF76FF90546E9
:104FA0000028F7D108231B931D934FF48073C02270
:104FB000159315A84FF000631C922A93FEF772FA1E
:104FC0000F2303934FF4A053069305214FF480530E
:104FD00003A8049405950793FEF78CF9B0FA80F0C6
:104FE0004009D8E7003802400070004008B50120B1
:104FF000FFF742FF38B9FFF79FFF20B90248BDE82D
:10500000084001F049BA08BD39FC0008174A1849A0
:10501000936803F00C03042B10B50DD0082B0DD0B2
:10502000144B0B60114B144A9B68C3F30313D25CFF
:105030000B68D3400B6010BD104BF2E7546850680A
:1050400052686302C2F3881200F03F004CBF0B4B62
:10505000084BB3FBF0F35343044A5268C2F30142D6
:1050600001325200B3FBF2F3DBE700BF003802402D
:10507000D80200200024F4004DFC000800127A0041
:10508000074B084A13601A69910707D5DA68920737
:1050900004D56FF002021A6100F0BEB9704700BF7C
:1050A000000C0040B81800200048704768FC000859
:1050B00030B589B001A903A8FEF7D6F9FEF7B4F917
:1050C000002302931E4B01901A6C1E4C42F0080202
:1050D0001A641A6C02F008020292029A1A6A42F0EA
:1050E00008021A621A6A22F008021A62069AA3F5E6
:1050F0000B3323604FF0FF33E360134BF2B9B0FB87
:10510000F3F00138002560600E482561A5606561F7
:10511000FFF754FB0D4B0E4A9B680A48C3F8082161
:105120000C4B4FF480225A602946FFF787FB226818
:10513000D36823F00203D36009B030BD4000DEE73E
:1051400000380240B818002040420F0000ED00E097
:105150008150000800E100E0014B586A704700BF31
:10516000000C0040054B1B686FF0020258631A6187
:10517000DA6842F00202DA60704700BFB818002017
:10518000064B1B686FF002021A615A6942F0020274
:105190005A61DA6842F00202DA607047B8180020FB
:1051A000034B1A68D36823F00203D360704700BF33
:1051B000B8180020FFF7F4BF024B1B686FF0020223
:1051C0001A617047B818002003689B6818470000F0
:1051D000094B10B5002203600023C0E9022300231D
:1051E00003614361044600F013F90449A06100F033
:1051F0008DFF204610BD00BF78FC0008C951000893
:1052000007B5009000F10801806900F0BEFF03B00F
:105210005DF804FB00F10801806900F0DFBF0000C9
:1052200010B5034B03600446FFF7F4FF204610BDA2
:1052300078FC000810B5044600F0C6FD23681BB1D9
:10524000237F0BB100F08CFB0023236000F0D2FD24
:10525000204610BD10B5044600F0B6FDA06900F070
:10526000D8FF00220023C4E90201C4E90423BDE8F9
:10527000104000F0BFBD002310B5002203600023E2
:10528000C0E90223C0E90423044600F0C1F8012369
:10529000A06123772046FFF7DDFF204610BD70B5E3
:1052A000D0E90823D0E90245064612196B41FFF701
:1052B000A7FF736B2BB106F128001B68BDE8704097
:1052C000184770BDD0B5044616461F4600F07CFD59
:1052D0002046FFF79FFFC4E90867A06900F099FF27
:1052E000321847EB01032046FFF78AFFBDE8D040A4
:1052F00000F080BD7FB5044600F066FD2046FFF754
:1053000089FF636B13B194F83830E3B904F12806D0
:105310006D4610220021684602F0B4FAAE420BD06E
:105320003046FBF78DF83EB1039B1BB15B686946C5
:1053300030469847039B63632846FBF781F800F0EB
:1053400059FD04B070BD00F00BFBDFE71FB5436BE8
:10535000044600F1280113B15B6868469847636B07
:1053600003932046FFF7C6FF039B2BB940F2392277
:105370000649074800F012FB039B68461B689847E4
:105380006846FBF75DF804B010BD00BF98FC00084C
:10539000F3FC000870B50E4604461546FCF70EFCFB
:1053A000013609D020460021FCF72CFC2946204676
:1053B000BDE87040FCF722BC70BD38B504460D4610
:1053C00003685AB18268136020460121FCF71AFC79
:1053D00029462046BDE83840FCF710BCC2681B04D3
:1053E000F1E70022FFF7D6BF70B50E46044615461A
:1053F000FCF7E4FB013606D02A4620460021BDE832
:105400007040FFF7DABF70BD0022FFF7EDBF00006C
:10541000004870470CFD0008024B1B680BB10248A6
:1054200018477047DC0200200CFD00087047A0F10F
:10543000BC00FFF7FBBFA0F1BC00FFF7F7BF00F017
:10544000B7BBA0F1BC00FFF7FABF00F0B4BBA0F1FE
:10545000BC00FFF7FABF000038B504461D46049BA8
:1054600000F0B0FB294604F1BC0001F055F9064BF1
:1054700003F10802226003F128028833C4F8BC203B
:10548000C4F8C030204638BD30FD00080346024A4B
:105490002030FCF7A3BC00BFC9550008F8B505468D
:1054A000134B45F8043B04460F4610261C220021EE
:1054B000284602F0E7F93246002104F1200002F00C
:1054C000E1F93246002104F1300002F0DBF9324606
:1054D000002104F1400002F0D5F939462046FFF7DB
:1054E000D5FF28463946FFF77CFF2046F8BD00BFB0
:1054F000C8FD000810B5084B044640F8203BFCF7F7
:105500002FFD04F14000FAF79BFF04F13000FAF799
:1055100097FF204610BD00BFC8FD000810B5044627
:10552000FFF7E8FF2046FDF700F8204610BD88424F
:1055300038B504460D460AD0FAF782FF3CB1EB6855
:105540001BB15B68294620469847EB68E36020461C
:1055500038BDF0B50F4685B0044600F035FCFD6857
:1055600004F13006203465B139463046FFF7DFFFDD
:10557000012201212046FCF7B9FB00F03BFC05B0FD
:10558000F0BD10222946684602F07CF96946304693
:10559000FFF7CDFF6846FAF753FF2A46E9E7000018
:1055A000C36810B504462BB940F2392204490548B6
:1055B00000F0F4F9E36820461B68BDE81040184786
:1055C00098FC0008F3FC0008012908B502D0022964
:1055D00006D008BDC36B13B13030FFF7E1FF08BD43
:1055E000C36C002BFBD04030F7E7000013B5044636
:1055F00001300FD102B010BD9C420AD1204689680B
:10560000FDF7DEF80021204602B0BDE81040FDF7AE
:105610006FB90C31B1F900305A1CEDD10023009361
:1056200022460249024800F059FFE3E701FE000864
:1056300030010180884207B502460BD0431C09D0D7
:1056400001310BD0002306490093064800F046FFC5
:105650004FF0FF31084603B05DF804FB0146F9E75F
:10566000D0FD000830010180B1F900305A1C01D191
:1056700018467047834201D1486870470C31F3E700
:10568000421C13B504460BD0FFF7EEFF431C044643
:1056900006D10023024600930349044800F01EFF90
:1056A000204602B010BD00BFE1FD000830010180BE
:1056B00010B480B1146853680CB9DA070BD513F035
:1056C000010F4FEA63031CBFC25814591844234604
:1056D0005DF8044B18475DF8044B7047064B19689A
:1056E0001A1D01B91A601B68934204D05E22034957
:1056F000034800F053B970471416002084F70008DF
:10570000E3F7000870B50A4D2B68834204460ED0BB
:10571000061DD0F8D020D0F8CC1000233046FFF77B
:10572000D3FAD4F8D4103046FFF708FB2C6070BDD4
:105730001C160020036870B59B6804460D4616468B
:1057400098470C4BC4F8CC501B68C4F8D0609C42FE
:105750000BD1002332462946201DFFF7B5FA2368F6
:105760002046DB68BDE8704018472046FFF7CAFFB7
:10577000F5E700BF1C16002038B5036804469B6897
:105780000D4698472046FFF7BDFF2946201DFFF72D
:10579000F3FA23680546DB6820469847284638BD5B
:1057A000F7B51F46036804469B680D4616469847A2
:1057B0002046FFF7A7FF94F8D8300193089B009389
:1057C00029463B463246201DFFF7FBFA2368054673
:1057D000DB6820469847284603B0F0BD2DE9F0432A
:1057E00006469946274B46F8043B85B004460025FB
:1057F0000F46904600219022304602F043F804AB59
:105800000295039513E9030004F198021E4B82E808
:105810000300C4F8A03048F20703C4F8A4301B4BBF
:10582000C4F8AC50C4F8A840C4F8B020C4F8B430F0
:10583000BFF36F8FBFF34F8F1022294604F1B800DA
:1058400002F020F80823C4F8CC30114BC4F8D4304F
:10585000FF2384F8D830BDF93030009342464B46E0
:105860003946304684F8C85084F8C950C4F8D0503E
:10587000FFF75CF92046FFF745FF204605B0BDE87D
:10588000F08300BF1CFE000801A090E8B15600089C
:1058900040420F00C36810B504460BB19B6898479F
:1058A000204610BD38B5044648B15830A04206D055
:1058B000A0F12C051438FFF7EDFF2846F6E7204647
:1058C00038BD38B500250446294640F8045B282237
:1058D00001F0D8FF1022294604F1180001F0D2FF90
:1058E000204638BD10B50A4C2046FFF7EAFF04F108
:1058F0002C00FFF7E6FF0023A3652046E365054A79
:1059000084F860300449BDE81040FCF7A3BC00BF38
:10591000B0150020C8010020A558000813B50D4C93
:1059200000F052FA22884FF6FF739A4208D100F035
:1059300061FA0023228800930749084800F0CEFD51
:105940000121044800F064FA02B0BDE8104000F004
:1059500051BA00BF2016002034FE00082301048045
:1059600037B50B4D00F030FA2C8844B900F042FAFC
:105970002A88009423460749074800F0AFFD01211B
:10598000034800F04FFA03B0BDE8304000F032BAEF
:105990002016002059FE00082401048070B504463A
:1059A0000D46164600F010FA33462A4621460348B3
:1059B000FCF774FBBDE87040FCF71ABB77FE0008EB
:1059C00009B9C82805D010F0030F0CBF0120002032
:1059D0007047084670470000F8B507460E4641B3C9
:1059E00038B34469A4F14605882D22D8036841687C
:1059F00080684FF4616E0EFB00F04FF03C0E0EFB22
:105A000001011944FB681848013B00FB03131146D0
:105A10002046FFF7D5FF3F690C2101FB00701349B9
:105A200051F82010CE2C0B4409D122B910498B42D9
:105A300007D90020F8BD012A03D10E49F7E7462C0B
:105A40000FD0611E8910A1F111001AB9C82CC8BF6E
:105A5000A1F1120040F26D1202FB0505024A02FBA1
:105A6000053333600120F8BD80510100A8FE000815
:105A70007F223100FFD02F0070B50B4600295AD08D
:105A80003C21B0FBF1F501FB15041C60B5FBF1F402
:105A900001FB1451182559604FF46161B0FBF1F11D
:105AA000B1FBF5F405FB14119960244CB0FBF4F440
:105AB0000721201DB0FBF1F1C1EBC101411A996131
:105AC000462159615D6911462846FFF779FF38B1D3
:105AD000B4F5B77F0DD301355D61A4F5B774F1E777
